{
  "contractName": "AUDStablecoin",
  "abi": [
    {
      "inputs": [],
      "stateMutability": "nonpayable",
      "type": "constructor"
    },
    {
      "anonymous": false,
      "inputs": [
        {
          "indexed": true,
          "internalType": "address",
          "name": "owner",
          "type": "address"
        },
        {
          "indexed": true,
          "internalType": "address",
          "name": "spender",
          "type": "address"
        },
        {
          "indexed": false,
          "internalType": "uint256",
          "name": "value",
          "type": "uint256"
        }
      ],
      "name": "Approval",
      "type": "event"
    },
    {
      "anonymous": false,
      "inputs": [
        {
          "indexed": true,
          "internalType": "address",
          "name": "from",
          "type": "address"
        },
        {
          "indexed": true,
          "internalType": "address",
          "name": "to",
          "type": "address"
        },
        {
          "indexed": false,
          "internalType": "uint256",
          "name": "value",
          "type": "uint256"
        }
      ],
      "name": "Transfer",
      "type": "event"
    },
    {
      "inputs": [],
      "name": "admin",
      "outputs": [
        {
          "internalType": "address",
          "name": "",
          "type": "address"
        }
      ],
      "stateMutability": "view",
      "type": "function",
      "constant": true
    },
    {
      "inputs": [
        {
          "internalType": "address",
          "name": "owner",
          "type": "address"
        },
        {
          "internalType": "address",
          "name": "spender",
          "type": "address"
        }
      ],
      "name": "allowance",
      "outputs": [
        {
          "internalType": "uint256",
          "name": "",
          "type": "uint256"
        }
      ],
      "stateMutability": "view",
      "type": "function",
      "constant": true
    },
    {
      "inputs": [
        {
          "internalType": "address",
          "name": "spender",
          "type": "address"
        },
        {
          "internalType": "uint256",
          "name": "amount",
          "type": "uint256"
        }
      ],
      "name": "approve",
      "outputs": [
        {
          "internalType": "bool",
          "name": "",
          "type": "bool"
        }
      ],
      "stateMutability": "nonpayable",
      "type": "function"
    },
    {
      "inputs": [
        {
          "internalType": "address",
          "name": "account",
          "type": "address"
        }
      ],
      "name": "balanceOf",
      "outputs": [
        {
          "internalType": "uint256",
          "name": "",
          "type": "uint256"
        }
      ],
      "stateMutability": "view",
      "type": "function",
      "constant": true
    },
    {
      "inputs": [],
      "name": "decimals",
      "outputs": [
        {
          "internalType": "uint8",
          "name": "",
          "type": "uint8"
        }
      ],
      "stateMutability": "view",
      "type": "function",
      "constant": true
    },
    {
      "inputs": [
        {
          "internalType": "address",
          "name": "spender",
          "type": "address"
        },
        {
          "internalType": "uint256",
          "name": "subtractedValue",
          "type": "uint256"
        }
      ],
      "name": "decreaseAllowance",
      "outputs": [
        {
          "internalType": "bool",
          "name": "",
          "type": "bool"
        }
      ],
      "stateMutability": "nonpayable",
      "type": "function"
    },
    {
      "inputs": [
        {
          "internalType": "address",
          "name": "spender",
          "type": "address"
        },
        {
          "internalType": "uint256",
          "name": "addedValue",
          "type": "uint256"
        }
      ],
      "name": "increaseAllowance",
      "outputs": [
        {
          "internalType": "bool",
          "name": "",
          "type": "bool"
        }
      ],
      "stateMutability": "nonpayable",
      "type": "function"
    },
    {
      "inputs": [],
      "name": "name",
      "outputs": [
        {
          "internalType": "string",
          "name": "",
          "type": "string"
        }
      ],
      "stateMutability": "view",
      "type": "function",
      "constant": true
    },
    {
      "inputs": [],
      "name": "symbol",
      "outputs": [
        {
          "internalType": "string",
          "name": "",
          "type": "string"
        }
      ],
      "stateMutability": "view",
      "type": "function",
      "constant": true
    },
    {
      "inputs": [],
      "name": "totalSupply",
      "outputs": [
        {
          "internalType": "uint256",
          "name": "",
          "type": "uint256"
        }
      ],
      "stateMutability": "view",
      "type": "function",
      "constant": true
    },
    {
      "inputs": [
        {
          "internalType": "address",
          "name": "recipient",
          "type": "address"
        },
        {
          "internalType": "uint256",
          "name": "amount",
          "type": "uint256"
        }
      ],
      "name": "transfer",
      "outputs": [
        {
          "internalType": "bool",
          "name": "",
          "type": "bool"
        }
      ],
      "stateMutability": "nonpayable",
      "type": "function"
    },
    {
      "inputs": [
        {
          "internalType": "address",
          "name": "sender",
          "type": "address"
        },
        {
          "internalType": "address",
          "name": "recipient",
          "type": "address"
        },
        {
          "internalType": "uint256",
          "name": "amount",
          "type": "uint256"
        }
      ],
      "name": "transferFrom",
      "outputs": [
        {
          "internalType": "bool",
          "name": "",
          "type": "bool"
        }
      ],
      "stateMutability": "nonpayable",
      "type": "function"
    },
    {
      "inputs": [
        {
          "internalType": "address",
          "name": "to",
          "type": "address"
        },
        {
          "internalType": "uint256",
          "name": "amount",
          "type": "uint256"
        }
      ],
      "name": "mint",
      "outputs": [],
      "stateMutability": "nonpayable",
      "type": "function"
    },
    {
      "inputs": [
        {
          "internalType": "uint256",
          "name": "amount",
          "type": "uint256"
        }
      ],
      "name": "burn",
      "outputs": [],
      "stateMutability": "nonpayable",
      "type": "function"
    }
  ],
  "bytecode": "0x60806040523480156200001157600080fd5b506040518060400160405280600f81526020017f41554420537461626c6520436f696e00000000000000000000000000000000008152506040518060400160405280600481526020017f415544430000000000000000000000000000000000000000000000000000000081525081600390805190602001906200009692919062000291565b508060049080519060200190620000af92919062000291565b505050620000c733620f42406200010e60201b60201c565b33600560006101000a81548173ffffffffffffffffffffffffffffffffffffffff021916908373ffffffffffffffffffffffffffffffffffffffff160217905550620004ed565b600073ffffffffffffffffffffffffffffffffffffffff168273ffffffffffffffffffffffffffffffffffffffff16141562000181576040517f08c379a00000000000000000000000000000000000000000000000000000000081526004016200017890620003a2565b60405180910390fd5b62000195600083836200028760201b60201c565b8060026000828254620001a99190620003fd565b92505081905550806000808473ffffffffffffffffffffffffffffffffffffffff1673ffffffffffffffffffffffffffffffffffffffff1681526020019081526020016000206000828254620002009190620003fd565b925050819055508173ffffffffffffffffffffffffffffffffffffffff16600073ffffffffffffffffffffffffffffffffffffffff167fddf252ad1be2c89b69c2b068fc378daa952ba7f163c4a11628f55a4df523b3ef836040516200026791906200046b565b60405180910390a362000283600083836200028c60201b60201c565b5050565b505050565b505050565b8280546200029f90620004b7565b90600052602060002090601f016020900481019282620002c357600085556200030f565b82601f10620002de57805160ff19168380011785556200030f565b828001600101855582156200030f579182015b828111156200030e578251825591602001919060010190620002f1565b5b5090506200031e919062000322565b5090565b5b808211156200033d57600081600090555060010162000323565b5090565b600082825260208201905092915050565b7f45524332303a206d696e7420746f20746865207a65726f206164647265737300600082015250565b60006200038a601f8362000341565b9150620003978262000352565b602082019050919050565b60006020820190508181036000830152620003bd816200037b565b9050919050565b6000819050919050565b7f4e487b7100000000000000000000000000000000000000000000000000000000600052601160045260246000fd5b60006200040a82620003c4565b91506200041783620003c4565b9250827fffffffffffffffffffffffffffffffffffffffffffffffffffffffffffffffff038211156200044f576200044e620003ce565b5b828201905092915050565b6200046581620003c4565b82525050565b60006020820190506200048260008301846200045a565b92915050565b7f4e487b7100000000000000000000000000000000000000000000000000000000600052602260045260246000fd5b60006002820490506001821680620004d057607f821691505b60208210811415620004e757620004e662000488565b5b50919050565b611ad080620004fd6000396000f3fe608060405234801561001057600080fd5b50600436106100ea5760003560e01c806342966c681161008c578063a457c2d711610066578063a457c2d71461025f578063a9059cbb1461028f578063dd62ed3e146102bf578063f851a440146102ef576100ea565b806342966c68146101f557806370a082311461021157806395d89b4114610241576100ea565b806323b872dd116100c857806323b872dd1461015b578063313ce5671461018b57806339509351146101a957806340c10f19146101d9576100ea565b806306fdde03146100ef578063095ea7b31461010d57806318160ddd1461013d575b600080fd5b6100f761030d565b60405161010491906110dd565b60405180910390f35b61012760048036038101906101229190611198565b61039f565b60405161013491906111f3565b60405180910390f35b6101456103bd565b604051610152919061121d565b60405180910390f35b61017560048036038101906101709190611238565b6103c7565b60405161018291906111f3565b60405180910390f35b6101936104bf565b6040516101a091906112a7565b60405180910390f35b6101c360048036038101906101be9190611198565b6104c8565b6040516101d091906111f3565b60405180910390f35b6101f360048036038101906101ee9190611198565b610574565b005b61020f600480360381019061020a91906112c2565b610582565b005b61022b600480360381019061022691906112ef565b61061f565b604051610238919061121d565b60405180910390f35b610249610667565b60405161025691906110dd565b60405180910390f35b61027960048036038101906102749190611198565b6106f9565b60405161028691906111f3565b60405180910390f35b6102a960048036038101906102a49190611198565b6107e4565b6040516102b691906111f3565b60405180910390f35b6102d960048036038101906102d4919061131c565b610802565b6040516102e6919061121d565b60405180910390f35b6102f7610889565b604051610304919061136b565b60405180910390f35b60606003805461031c906113b5565b80601f0160208091040260200160405190810160405280929190818152602001828054610348906113b5565b80156103955780601f1061036a57610100808354040283529160200191610395565b820191906000526020600020905b81548152906001019060200180831161037857829003601f168201915b5050505050905090565b60006103b36103ac6108af565b84846108b7565b6001905092915050565b6000600254905090565b60006103d4848484610a82565b6000600160008673ffffffffffffffffffffffffffffffffffffffff1673ffffffffffffffffffffffffffffffffffffffff168152602001908152602001600020600061041f6108af565b73ffffffffffffffffffffffffffffffffffffffff1673ffffffffffffffffffffffffffffffffffffffff1681526020019081526020016000205490508281101561049f576040517f08c379a000000000000000000000000000000000000000000000000000000000815260040161049690611459565b60405180910390fd5b6104b3856104ab6108af565b8584036108b7565b60019150509392505050565b60006012905090565b600061056a6104d56108af565b8484600160006104e36108af565b73ffffffffffffffffffffffffffffffffffffffff1673ffffffffffffffffffffffffffffffffffffffff16815260200190815260200160002060008873ffffffffffffffffffffffffffffffffffffffff1673ffffffffffffffffffffffffffffffffffffffff1681526020019081526020016000205461056591906114a8565b6108b7565b6001905092915050565b61057e8282610d03565b5050565b600560009054906101000a900473ffffffffffffffffffffffffffffffffffffffff1673ffffffffffffffffffffffffffffffffffffffff163373ffffffffffffffffffffffffffffffffffffffff1614610612576040517f08c379a00000000000000000000000000000000000000000000000000000000081526004016106099061154a565b60405180910390fd5b61061c3382610e63565b50565b60008060008373ffffffffffffffffffffffffffffffffffffffff1673ffffffffffffffffffffffffffffffffffffffff168152602001908152602001600020549050919050565b606060048054610676906113b5565b80601f01602080910402602001604051908101604052809291908181526020018280546106a2906113b5565b80156106ef5780601f106106c4576101008083540402835291602001916106ef565b820191906000526020600020905b8154815290600101906020018083116106d257829003601f168201915b5050505050905090565b600080600160006107086108af565b73ffffffffffffffffffffffffffffffffffffffff1673ffffffffffffffffffffffffffffffffffffffff16815260200190815260200160002060008573ffffffffffffffffffffffffffffffffffffffff1673ffffffffffffffffffffffffffffffffffffffff168152602001908152602001600020549050828110156107c5576040517f08c379a00000000000000000000000000000000000000000000000000000000081526004016107bc906115dc565b60405180910390fd5b6107d96107d06108af565b858584036108b7565b600191505092915050565b60006107f86107f16108af565b8484610a82565b6001905092915050565b6000600160008473ffffffffffffffffffffffffffffffffffffffff1673ffffffffffffffffffffffffffffffffffffffff16815260200190815260200160002060008373ffffffffffffffffffffffffffffffffffffffff1673ffffffffffffffffffffffffffffffffffffffff16815260200190815260200160002054905092915050565b600560009054906101000a900473ffffffffffffffffffffffffffffffffffffffff1681565b600033905090565b600073ffffffffffffffffffffffffffffffffffffffff168373ffffffffffffffffffffffffffffffffffffffff161415610927576040517f08c379a000000000000000000000000000000000000000000000000000000000815260040161091e9061166e565b60405180910390fd5b600073ffffffffffffffffffffffffffffffffffffffff168273ffffffffffffffffffffffffffffffffffffffff161415610997576040517f08c379a000000000000000000000000000000000000000000000000000000000815260040161098e90611700565b60405180910390fd5b80600160008573ffffffffffffffffffffffffffffffffffffffff1673ffffffffffffffffffffffffffffffffffffffff16815260200190815260200160002060008473ffffffffffffffffffffffffffffffffffffffff1673ffffffffffffffffffffffffffffffffffffffff168152602001908152602001600020819055508173ffffffffffffffffffffffffffffffffffffffff168373ffffffffffffffffffffffffffffffffffffffff167f8c5be1e5ebec7d5bd14f71427d1e84f3dd0314c0f7b2291e5b200ac8c7c3b92583604051610a75919061121d565b60405180910390a3505050565b600073ffffffffffffffffffffffffffffffffffffffff168373ffffffffffffffffffffffffffffffffffffffff161415610af2576040517f08c379a0000000000000000000000000000000000000000000000000000000008152600401610ae990611792565b60405180910390fd5b600073ffffffffffffffffffffffffffffffffffffffff168273ffffffffffffffffffffffffffffffffffffffff161415610b62576040517f08c379a0000000000000000000000000000000000000000000000000000000008152600401610b5990611824565b60405180910390fd5b610b6d83838361103a565b60008060008573ffffffffffffffffffffffffffffffffffffffff1673ffffffffffffffffffffffffffffffffffffffff16815260200190815260200160002054905081811015610bf3576040517f08c379a0000000000000000000000000000000000000000000000000000000008152600401610bea906118b6565b60405180910390fd5b8181036000808673ffffffffffffffffffffffffffffffffffffffff1673ffffffffffffffffffffffffffffffffffffffff16815260200190815260200160002081905550816000808573ffffffffffffffffffffffffffffffffffffffff1673ffffffffffffffffffffffffffffffffffffffff1681526020019081526020016000206000828254610c8691906114a8565b925050819055508273ffffffffffffffffffffffffffffffffffffffff168473ffffffffffffffffffffffffffffffffffffffff167fddf252ad1be2c89b69c2b068fc378daa952ba7f163c4a11628f55a4df523b3ef84604051610cea919061121d565b60405180910390a3610cfd84848461103f565b50505050565b600073ffffffffffffffffffffffffffffffffffffffff168273ffffffffffffffffffffffffffffffffffffffff161415610d73576040517f08c379a0000000000000000000000000000000000000000000000000000000008152600401610d6a90611922565b60405180910390fd5b610d7f6000838361103a565b8060026000828254610d9191906114a8565b92505081905550806000808473ffffffffffffffffffffffffffffffffffffffff1673ffffffffffffffffffffffffffffffffffffffff1681526020019081526020016000206000828254610de691906114a8565b925050819055508173ffffffffffffffffffffffffffffffffffffffff16600073ffffffffffffffffffffffffffffffffffffffff167fddf252ad1be2c89b69c2b068fc378daa952ba7f163c4a11628f55a4df523b3ef83604051610e4b919061121d565b60405180910390a3610e5f6000838361103f565b5050565b600073ffffffffffffffffffffffffffffffffffffffff168273ffffffffffffffffffffffffffffffffffffffff161415610ed3576040517f08c379a0000000000000000000000000000000000000000000000000000000008152600401610eca906119b4565b60405180910390fd5b610edf8260008361103a565b60008060008473ffffffffffffffffffffffffffffffffffffffff1673ffffffffffffffffffffffffffffffffffffffff16815260200190815260200160002054905081811015610f65576040517f08c379a0000000000000000000000000000000000000000000000000000000008152600401610f5c90611a46565b60405180910390fd5b8181036000808573ffffffffffffffffffffffffffffffffffffffff1673ffffffffffffffffffffffffffffffffffffffff168152602001908152602001600020819055508160026000828254610fbc9190611a66565b92505081905550600073ffffffffffffffffffffffffffffffffffffffff168373ffffffffffffffffffffffffffffffffffffffff167fddf252ad1be2c89b69c2b068fc378daa952ba7f163c4a11628f55a4df523b3ef84604051611021919061121d565b60405180910390a36110358360008461103f565b505050565b505050565b505050565b600081519050919050565b600082825260208201905092915050565b60005b8381101561107e578082015181840152602081019050611063565b8381111561108d576000848401525b50505050565b6000601f19601f8301169050919050565b60006110af82611044565b6110b9818561104f565b93506110c9818560208601611060565b6110d281611093565b840191505092915050565b600060208201905081810360008301526110f781846110a4565b905092915050565b600080fd5b600073ffffffffffffffffffffffffffffffffffffffff82169050919050565b600061112f82611104565b9050919050565b61113f81611124565b811461114a57600080fd5b50565b60008135905061115c81611136565b92915050565b6000819050919050565b61117581611162565b811461118057600080fd5b50565b6000813590506111928161116c565b92915050565b600080604083850312156111af576111ae6110ff565b5b60006111bd8582860161114d565b92505060206111ce85828601611183565b9150509250929050565b60008115159050919050565b6111ed816111d8565b82525050565b600060208201905061120860008301846111e4565b92915050565b61121781611162565b82525050565b6000602082019050611232600083018461120e565b92915050565b600080600060608486031215611251576112506110ff565b5b600061125f8682870161114d565b93505060206112708682870161114d565b925050604061128186828701611183565b9150509250925092565b600060ff82169050919050565b6112a18161128b565b82525050565b60006020820190506112bc6000830184611298565b92915050565b6000602082840312156112d8576112d76110ff565b5b60006112e684828501611183565b91505092915050565b600060208284031215611305576113046110ff565b5b60006113138482850161114d565b91505092915050565b60008060408385031215611333576113326110ff565b5b60006113418582860161114d565b92505060206113528582860161114d565b9150509250929050565b61136581611124565b82525050565b6000602082019050611380600083018461135c565b92915050565b7f4e487b7100000000000000000000000000000000000000000000000000000000600052602260045260246000fd5b600060028204905060018216806113cd57607f821691505b602082108114156113e1576113e0611386565b5b50919050565b7f45524332303a207472616e7366657220616d6f756e742065786365656473206160008201527f6c6c6f77616e6365000000000000000000000000000000000000000000000000602082015250565b600061144360288361104f565b915061144e826113e7565b604082019050919050565b6000602082019050818103600083015261147281611436565b9050919050565b7f4e487b7100000000000000000000000000000000000000000000000000000000600052601160045260246000fd5b60006114b382611162565b91506114be83611162565b9250827fffffffffffffffffffffffffffffffffffffffffffffffffffffffffffffffff038211156114f3576114f2611479565b5b828201905092915050565b7f4f6e6c792061646d696e00000000000000000000000000000000000000000000600082015250565b6000611534600a8361104f565b915061153f826114fe565b602082019050919050565b6000602082019050818103600083015261156381611527565b9050919050565b7f45524332303a2064656372656173656420616c6c6f77616e63652062656c6f7760008201527f207a65726f000000000000000000000000000000000000000000000000000000602082015250565b60006115c660258361104f565b91506115d18261156a565b604082019050919050565b600060208201905081810360008301526115f5816115b9565b9050919050565b7f45524332303a20617070726f76652066726f6d20746865207a65726f2061646460008201527f7265737300000000000000000000000000000000000000000000000000000000602082015250565b600061165860248361104f565b9150611663826115fc565b604082019050919050565b600060208201905081810360008301526116878161164b565b9050919050565b7f45524332303a20617070726f766520746f20746865207a65726f20616464726560008201527f7373000000000000000000000000000000000000000000000000000000000000602082015250565b60006116ea60228361104f565b91506116f58261168e565b604082019050919050565b60006020820190508181036000830152611719816116dd565b9050919050565b7f45524332303a207472616e736665722066726f6d20746865207a65726f20616460008201527f6472657373000000000000000000000000000000000000000000000000000000602082015250565b600061177c60258361104f565b915061178782611720565b604082019050919050565b600060208201905081810360008301526117ab8161176f565b9050919050565b7f45524332303a207472616e7366657220746f20746865207a65726f206164647260008201527f6573730000000000000000000000000000000000000000000000000000000000602082015250565b600061180e60238361104f565b9150611819826117b2565b604082019050919050565b6000602082019050818103600083015261183d81611801565b9050919050565b7f45524332303a207472616e7366657220616d6f756e742065786365656473206260008201527f616c616e63650000000000000000000000000000000000000000000000000000602082015250565b60006118a060268361104f565b91506118ab82611844565b604082019050919050565b600060208201905081810360008301526118cf81611893565b9050919050565b7f45524332303a206d696e7420746f20746865207a65726f206164647265737300600082015250565b600061190c601f8361104f565b9150611917826118d6565b602082019050919050565b6000602082019050818103600083015261193b816118ff565b9050919050565b7f45524332303a206275726e2066726f6d20746865207a65726f2061646472657360008201527f7300000000000000000000000000000000000000000000000000000000000000602082015250565b600061199e60218361104f565b91506119a982611942565b604082019050919050565b600060208201905081810360008301526119cd81611991565b9050919050565b7f45524332303a206275726e20616d6f756e7420657863656564732062616c616e60008201527f6365000000000000000000000000000000000000000000000000000000000000602082015250565b6000611a3060228361104f565b9150611a3b826119d4565b604082019050919050565b60006020820190508181036000830152611a5f81611a23565b9050919050565b6000611a7182611162565b9150611a7c83611162565b925082821015611a8f57611a8e611479565b5b82820390509291505056fea264697066735822122051e996deab1800dc762932cb247cae0978bc2f58528e0f92e07005962372411e64736f6c63430008090033",
  "immutableReferences": {},
  "source": "// SPDX-License-Identifier: MIT\npragma solidity >=0.8.6;\nimport \"../../node_modules/@openzeppelin/contracts/token/ERC20/ERC20.sol\";\n\ncontract AUDStablecoin is ERC20 {\n    \n    address public admin;\n\n    constructor() ERC20(\"AUD Stable Coin\", \"AUDC\") {\n        _mint(msg.sender, 10000 * 10 ** 2);\n        admin = msg.sender;\n    }\n    \n    function mint(address to, uint256 amount) external {                \n        _mint(to, amount);\n    }\n\n    function burn(uint256 amount) external {        \n        require(msg.sender == admin, \"Only admin\");\n        _burn(msg.sender, amount);\n    }\n}\n",
  "sourcePath": "/home/snowman/Documents/DEFI_AURUS/my-app/src/contracts/AUDStablecoin.sol",
  "compiler": {
    "name": "solc",
    "version": "0.8.9+commit.e5eed63a.Emscripten.clang"
  },
  "schemaVersion": "3.4.3",
  "updatedAt": "2021-10-21T23:28:38.348Z",
  "networkType": "ethereum",
  "devdoc": {
    "kind": "dev",
    "methods": {
      "allowance(address,address)": {
        "details": "See {IERC20-allowance}."
      },
      "approve(address,uint256)": {
        "details": "See {IERC20-approve}. Requirements: - `spender` cannot be the zero address."
      },
      "balanceOf(address)": {
        "details": "See {IERC20-balanceOf}."
      },
      "decimals()": {
        "details": "Returns the number of decimals used to get its user representation. For example, if `decimals` equals `2`, a balance of `505` tokens should be displayed to a user as `5.05` (`505 / 10 ** 2`). Tokens usually opt for a value of 18, imitating the relationship between Ether and Wei. This is the value {ERC20} uses, unless this function is overridden; NOTE: This information is only used for _display_ purposes: it in no way affects any of the arithmetic of the contract, including {IERC20-balanceOf} and {IERC20-transfer}."
      },
      "decreaseAllowance(address,uint256)": {
        "details": "Atomically decreases the allowance granted to `spender` by the caller. This is an alternative to {approve} that can be used as a mitigation for problems described in {IERC20-approve}. Emits an {Approval} event indicating the updated allowance. Requirements: - `spender` cannot be the zero address. - `spender` must have allowance for the caller of at least `subtractedValue`."
      },
      "increaseAllowance(address,uint256)": {
        "details": "Atomically increases the allowance granted to `spender` by the caller. This is an alternative to {approve} that can be used as a mitigation for problems described in {IERC20-approve}. Emits an {Approval} event indicating the updated allowance. Requirements: - `spender` cannot be the zero address."
      },
      "name()": {
        "details": "Returns the name of the token."
      },
      "symbol()": {
        "details": "Returns the symbol of the token, usually a shorter version of the name."
      },
      "totalSupply()": {
        "details": "See {IERC20-totalSupply}."
      },
      "transfer(address,uint256)": {
        "details": "See {IERC20-transfer}. Requirements: - `recipient` cannot be the zero address. - the caller must have a balance of at least `amount`."
      },
      "transferFrom(address,address,uint256)": {
        "details": "See {IERC20-transferFrom}. Emits an {Approval} event indicating the updated allowance. This is not required by the EIP. See the note at the beginning of {ERC20}. Requirements: - `sender` and `recipient` cannot be the zero address. - `sender` must have a balance of at least `amount`. - the caller must have allowance for ``sender``'s tokens of at least `amount`."
      }
    },
    "version": 1
  },
  "userdoc": {
    "kind": "user",
    "methods": {},
    "version": 1
  }
}