{
  "contractName": "Vault",
  "abi": [
    {
      "inputs": [
        {
          "internalType": "contract AUDStablecoin",
          "name": "_audStablecoin",
          "type": "address"
        }
      ],
      "stateMutability": "nonpayable",
      "type": "constructor"
    },
    {
      "anonymous": false,
      "inputs": [
        {
          "indexed": true,
          "internalType": "address",
          "name": "_owner",
          "type": "address"
        },
        {
          "indexed": true,
          "internalType": "address",
          "name": "_spender",
          "type": "address"
        },
        {
          "indexed": false,
          "internalType": "uint256",
          "name": "_value",
          "type": "uint256"
        }
      ],
      "name": "Approval",
      "type": "event"
    },
    {
      "anonymous": false,
      "inputs": [
        {
          "indexed": true,
          "internalType": "address",
          "name": "_from",
          "type": "address"
        },
        {
          "indexed": true,
          "internalType": "address",
          "name": "_to",
          "type": "address"
        },
        {
          "indexed": false,
          "internalType": "uint256",
          "name": "_value",
          "type": "uint256"
        }
      ],
      "name": "Transfer",
      "type": "event"
    },
    {
      "inputs": [
        {
          "internalType": "address",
          "name": "",
          "type": "address"
        }
      ],
      "name": "audCoinAmount",
      "outputs": [
        {
          "internalType": "uint256",
          "name": "",
          "type": "uint256"
        }
      ],
      "stateMutability": "view",
      "type": "function",
      "constant": true
    },
    {
      "inputs": [],
      "name": "audStablecoin",
      "outputs": [
        {
          "internalType": "contract AUDStablecoin",
          "name": "",
          "type": "address"
        }
      ],
      "stateMutability": "view",
      "type": "function",
      "constant": true
    },
    {
      "inputs": [
        {
          "internalType": "address",
          "name": "",
          "type": "address"
        }
      ],
      "name": "collateralAmount",
      "outputs": [
        {
          "internalType": "uint256",
          "name": "",
          "type": "uint256"
        }
      ],
      "stateMutability": "view",
      "type": "function",
      "constant": true
    },
    {
      "inputs": [],
      "name": "name",
      "outputs": [
        {
          "internalType": "string",
          "name": "",
          "type": "string"
        }
      ],
      "stateMutability": "view",
      "type": "function",
      "constant": true
    },
    {
      "inputs": [],
      "name": "owner",
      "outputs": [
        {
          "internalType": "address",
          "name": "",
          "type": "address"
        }
      ],
      "stateMutability": "view",
      "type": "function",
      "constant": true
    },
    {
      "inputs": [
        {
          "internalType": "address",
          "name": "_to",
          "type": "address"
        },
        {
          "internalType": "uint256",
          "name": "_amount",
          "type": "uint256"
        }
      ],
      "name": "transfer",
      "outputs": [
        {
          "internalType": "bool",
          "name": "success",
          "type": "bool"
        }
      ],
      "stateMutability": "nonpayable",
      "type": "function"
    },
    {
      "inputs": [
        {
          "internalType": "address",
          "name": "_spender",
          "type": "address"
        },
        {
          "internalType": "uint256",
          "name": "_amount",
          "type": "uint256"
        }
      ],
      "name": "approve",
      "outputs": [
        {
          "internalType": "bool",
          "name": "success",
          "type": "bool"
        }
      ],
      "stateMutability": "nonpayable",
      "type": "function"
    },
    {
      "inputs": [],
      "name": "deposit",
      "outputs": [],
      "stateMutability": "payable",
      "type": "function",
      "payable": true
    },
    {
      "inputs": [],
      "name": "getCollateralAmount",
      "outputs": [
        {
          "internalType": "uint256",
          "name": "",
          "type": "uint256"
        }
      ],
      "stateMutability": "view",
      "type": "function",
      "constant": true
    },
    {
      "inputs": [],
      "name": "getBalance",
      "outputs": [
        {
          "internalType": "uint256",
          "name": "",
          "type": "uint256"
        }
      ],
      "stateMutability": "view",
      "type": "function",
      "constant": true
    },
    {
      "inputs": [
        {
          "internalType": "uint256",
          "name": "_amount",
          "type": "uint256"
        }
      ],
      "name": "generateAUDCoin",
      "outputs": [],
      "stateMutability": "nonpayable",
      "type": "function"
    },
    {
      "inputs": [],
      "name": "getAUDCAvailable",
      "outputs": [
        {
          "internalType": "uint256",
          "name": "",
          "type": "uint256"
        }
      ],
      "stateMutability": "view",
      "type": "function",
      "constant": true
    },
    {
      "inputs": [
        {
          "internalType": "uint256",
          "name": "_ether_amount",
          "type": "uint256"
        }
      ],
      "name": "getPossibleAUDC",
      "outputs": [
        {
          "internalType": "uint256",
          "name": "",
          "type": "uint256"
        }
      ],
      "stateMutability": "view",
      "type": "function",
      "constant": true
    },
    {
      "inputs": [],
      "name": "getAUDAmount",
      "outputs": [
        {
          "internalType": "uint256",
          "name": "",
          "type": "uint256"
        }
      ],
      "stateMutability": "view",
      "type": "function",
      "constant": true
    },
    {
      "inputs": [],
      "name": "getNotUsedCollateral",
      "outputs": [
        {
          "internalType": "uint256",
          "name": "",
          "type": "uint256"
        }
      ],
      "stateMutability": "view",
      "type": "function",
      "constant": true
    },
    {
      "inputs": [
        {
          "internalType": "uint256",
          "name": "_amount",
          "type": "uint256"
        }
      ],
      "name": "withdrawEthAvailable",
      "outputs": [],
      "stateMutability": "nonpayable",
      "type": "function"
    }
  ],
  "bytecode": "0x60806040526040518060400160405280600581526020017f5661756c74000000000000000000000000000000000000000000000000000000815250600090805190602001906200005192919062000114565b50610fa06001553480156200006557600080fd5b50604051620018493803806200184983398181016040528101906200008b919062000242565b80600360006101000a81548173ffffffffffffffffffffffffffffffffffffffff021916908373ffffffffffffffffffffffffffffffffffffffff16021790555033600260006101000a81548173ffffffffffffffffffffffffffffffffffffffff021916908373ffffffffffffffffffffffffffffffffffffffff16021790555050620002d9565b8280546200012290620002a3565b90600052602060002090601f01602090048101928262000146576000855562000192565b82601f106200016157805160ff191683800117855562000192565b8280016001018555821562000192579182015b828111156200019157825182559160200191906001019062000174565b5b509050620001a19190620001a5565b5090565b5b80821115620001c0576000816000905550600101620001a6565b5090565b600080fd5b600073ffffffffffffffffffffffffffffffffffffffff82169050919050565b6000620001f682620001c9565b9050919050565b60006200020a82620001e9565b9050919050565b6200021c81620001fd565b81146200022857600080fd5b50565b6000815190506200023c8162000211565b92915050565b6000602082840312156200025b576200025a620001c4565b5b60006200026b848285016200022b565b91505092915050565b7f4e487b7100000000000000000000000000000000000000000000000000000000600052602260045260246000fd5b60006002820490506001821680620002bc57607f821691505b60208210811415620002d357620002d262000274565b5b50919050565b61156080620002e96000396000f3fe6080604052600436106100f35760003560e01c80638da5cb5b1161008a578063b2cd0fdc11610059578063b2cd0fdc14610330578063d0e30db01461036d578063f937d6ca14610377578063fc06bb6b146103a0576100f3565b80638da5cb5b1461026057806399eac5be1461028b578063a9059cbb146102b6578063b1874857146102f3576100f3565b80634c287264116100c65780634c287264146101b657806359313079146101e15780636770e06a1461020c578063706a5e7c14610237576100f3565b806306fdde03146100f8578063095ea7b31461012357806312065fe014610160578063315deeaa1461018b575b600080fd5b34801561010457600080fd5b5061010d6103dd565b60405161011a9190610eb2565b60405180910390f35b34801561012f57600080fd5b5061014a60048036038101906101459190610f6d565b61046b565b6040516101579190610fc8565b60405180910390f35b34801561016c57600080fd5b506101756105c1565b6040516101829190610ff2565b60405180910390f35b34801561019757600080fd5b506101a06105c9565b6040516101ad9190610ff2565b60405180910390f35b3480156101c257600080fd5b506101cb610610565b6040516101d89190610ff2565b60405180910390f35b3480156101ed57600080fd5b506101f66106bb565b6040516102039190610ff2565b60405180910390f35b34801561021857600080fd5b50610221610702565b60405161022e9190610ff2565b60405180910390f35b34801561024357600080fd5b5061025e6004803603810190610259919061100d565b6107a0565b005b34801561026c57600080fd5b50610275610964565b6040516102829190611049565b60405180910390f35b34801561029757600080fd5b506102a061098a565b6040516102ad91906110c3565b60405180910390f35b3480156102c257600080fd5b506102dd60048036038101906102d89190610f6d565b6109b0565b6040516102ea9190610fc8565b60405180910390f35b3480156102ff57600080fd5b5061031a600480360381019061031591906110de565b610b06565b6040516103279190610ff2565b60405180910390f35b34801561033c57600080fd5b50610357600480360381019061035291906110de565b610b1e565b6040516103649190610ff2565b60405180910390f35b610375610b36565b005b34801561038357600080fd5b5061039e6004803603810190610399919061100d565b610bc6565b005b3480156103ac57600080fd5b506103c760048036038101906103c2919061100d565b610e02565b6040516103d49190610ff2565b60405180910390f35b600080546103ea9061113a565b80601f01602080910402602001604051908101604052809291908181526020018280546104169061113a565b80156104635780601f1061043857610100808354040283529160200191610463565b820191906000526020600020905b81548152906001019060200180831161044657829003601f168201915b505050505081565b600081600154600560003373ffffffffffffffffffffffffffffffffffffffff1673ffffffffffffffffffffffffffffffffffffffff16815260200190815260200160002054600154600460003373ffffffffffffffffffffffffffffffffffffffff1673ffffffffffffffffffffffffffffffffffffffff168152602001908152602001600020546104fe919061119b565b61050891906111f5565b6105129190611258565b11610552576040517f08c379a0000000000000000000000000000000000000000000000000000000008152600401610549906112fb565b60405180910390fd5b8273ffffffffffffffffffffffffffffffffffffffff163373ffffffffffffffffffffffffffffffffffffffff167f8c5be1e5ebec7d5bd14f71427d1e84f3dd0314c0f7b2291e5b200ac8c7c3b925846040516105af9190610ff2565b60405180910390a36001905092915050565b600047905090565b6000600460003373ffffffffffffffffffffffffffffffffffffffff1673ffffffffffffffffffffffffffffffffffffffff16815260200190815260200160002054905090565b6000600154600560003373ffffffffffffffffffffffffffffffffffffffff1673ffffffffffffffffffffffffffffffffffffffff16815260200190815260200160002054600154600460003373ffffffffffffffffffffffffffffffffffffffff1673ffffffffffffffffffffffffffffffffffffffff168152602001908152602001600020546106a2919061119b565b6106ac91906111f5565b6106b69190611258565b905090565b6000600560003373ffffffffffffffffffffffffffffffffffffffff1673ffffffffffffffffffffffffffffffffffffffff16815260200190815260200160002054905090565b6000600560003373ffffffffffffffffffffffffffffffffffffffff1673ffffffffffffffffffffffffffffffffffffffff16815260200190815260200160002054600154600460003373ffffffffffffffffffffffffffffffffffffffff1673ffffffffffffffffffffffffffffffffffffffff16815260200190815260200160002054610791919061119b565b61079b91906111f5565b905090565b600081116107e3576040517f08c379a00000000000000000000000000000000000000000000000000000000081526004016107da9061138d565b60405180910390fd5b80600154600560003373ffffffffffffffffffffffffffffffffffffffff1673ffffffffffffffffffffffffffffffffffffffff16815260200190815260200160002054600154600460003373ffffffffffffffffffffffffffffffffffffffff1673ffffffffffffffffffffffffffffffffffffffff16815260200190815260200160002054610874919061119b565b61087e91906111f5565b6108889190611258565b116108c8576040517f08c379a00000000000000000000000000000000000000000000000000000000081526004016108bf906112fb565b60405180910390fd5b6108d233826109b0565b5080600460003373ffffffffffffffffffffffffffffffffffffffff1673ffffffffffffffffffffffffffffffffffffffff1681526020019081526020016000205461091e91906111f5565b600460003373ffffffffffffffffffffffffffffffffffffffff1673ffffffffffffffffffffffffffffffffffffffff1681526020019081526020016000208190555050565b600260009054906101000a900473ffffffffffffffffffffffffffffffffffffffff1681565b600360009054906101000a900473ffffffffffffffffffffffffffffffffffffffff1681565b600081600154600560003373ffffffffffffffffffffffffffffffffffffffff1673ffffffffffffffffffffffffffffffffffffffff16815260200190815260200160002054600154600460003373ffffffffffffffffffffffffffffffffffffffff1673ffffffffffffffffffffffffffffffffffffffff16815260200190815260200160002054610a43919061119b565b610a4d91906111f5565b610a579190611258565b11610a97576040517f08c379a0000000000000000000000000000000000000000000000000000000008152600401610a8e906112fb565b60405180910390fd5b8273ffffffffffffffffffffffffffffffffffffffff163373ffffffffffffffffffffffffffffffffffffffff167fddf252ad1be2c89b69c2b068fc378daa952ba7f163c4a11628f55a4df523b3ef84604051610af49190610ff2565b60405180910390a36001905092915050565b60056020528060005260406000206000915090505481565b60046020528060005260406000206000915090505481565b34600460003373ffffffffffffffffffffffffffffffffffffffff1673ffffffffffffffffffffffffffffffffffffffff16815260200190815260200160002054610b8191906113ad565b600460003373ffffffffffffffffffffffffffffffffffffffff1673ffffffffffffffffffffffffffffffffffffffff16815260200190815260200160002081905550565b60008111610c09576040517f08c379a0000000000000000000000000000000000000000000000000000000008152600401610c009061144f565b60405180910390fd5b80600560003373ffffffffffffffffffffffffffffffffffffffff1673ffffffffffffffffffffffffffffffffffffffff16815260200190815260200160002054600154600460003373ffffffffffffffffffffffffffffffffffffffff1673ffffffffffffffffffffffffffffffffffffffff16815260200190815260200160002054610c97919061119b565b610ca191906111f5565b1015610ce2576040517f08c379a0000000000000000000000000000000000000000000000000000000008152600401610cd9906114e1565b60405180910390fd5b600360009054906101000a900473ffffffffffffffffffffffffffffffffffffffff1673ffffffffffffffffffffffffffffffffffffffff166340c10f1933836040518363ffffffff1660e01b8152600401610d3f929190611501565b600060405180830381600087803b158015610d5957600080fd5b505af1158015610d6d573d6000803e3d6000fd5b5050505080600560003373ffffffffffffffffffffffffffffffffffffffff1673ffffffffffffffffffffffffffffffffffffffff16815260200190815260200160002054610dbc91906113ad565b600560003373ffffffffffffffffffffffffffffffffffffffff1673ffffffffffffffffffffffffffffffffffffffff1681526020019081526020016000208190555050565b600060015482610e12919061119b565b9050919050565b600081519050919050565b600082825260208201905092915050565b60005b83811015610e53578082015181840152602081019050610e38565b83811115610e62576000848401525b50505050565b6000601f19601f8301169050919050565b6000610e8482610e19565b610e8e8185610e24565b9350610e9e818560208601610e35565b610ea781610e68565b840191505092915050565b60006020820190508181036000830152610ecc8184610e79565b905092915050565b600080fd5b600073ffffffffffffffffffffffffffffffffffffffff82169050919050565b6000610f0482610ed9565b9050919050565b610f1481610ef9565b8114610f1f57600080fd5b50565b600081359050610f3181610f0b565b92915050565b6000819050919050565b610f4a81610f37565b8114610f5557600080fd5b50565b600081359050610f6781610f41565b92915050565b60008060408385031215610f8457610f83610ed4565b5b6000610f9285828601610f22565b9250506020610fa385828601610f58565b9150509250929050565b60008115159050919050565b610fc281610fad565b82525050565b6000602082019050610fdd6000830184610fb9565b92915050565b610fec81610f37565b82525050565b60006020820190506110076000830184610fe3565b92915050565b60006020828403121561102357611022610ed4565b5b600061103184828501610f58565b91505092915050565b61104381610ef9565b82525050565b600060208201905061105e600083018461103a565b92915050565b6000819050919050565b600061108961108461107f84610ed9565b611064565b610ed9565b9050919050565b600061109b8261106e565b9050919050565b60006110ad82611090565b9050919050565b6110bd816110a2565b82525050565b60006020820190506110d860008301846110b4565b92915050565b6000602082840312156110f4576110f3610ed4565b5b600061110284828501610f22565b91505092915050565b7f4e487b7100000000000000000000000000000000000000000000000000000000600052602260045260246000fd5b6000600282049050600182168061115257607f821691505b602082108114156111665761116561110b565b5b50919050565b7f4e487b7100000000000000000000000000000000000000000000000000000000600052601160045260246000fd5b60006111a682610f37565b91506111b183610f37565b9250817fffffffffffffffffffffffffffffffffffffffffffffffffffffffffffffffff04831182151516156111ea576111e961116c565b5b828202905092915050565b600061120082610f37565b915061120b83610f37565b92508282101561121e5761121d61116c565b5b828203905092915050565b7f4e487b7100000000000000000000000000000000000000000000000000000000600052601260045260246000fd5b600061126382610f37565b915061126e83610f37565b92508261127e5761127d611229565b5b828204905092915050565b7f557365722063616e6e6f74207769746864726177206d6f726520636f6c6c617460008201527f6572616c697a65642076616c7565207468616e20697473206861766500000000602082015250565b60006112e5603c83610e24565b91506112f082611289565b604082019050919050565b60006020820190508181036000830152611314816112d8565b9050919050565b7f416d6f756e74206d696768742062652067726561746572207468616e207a657260008201527f6f00000000000000000000000000000000000000000000000000000000000000602082015250565b6000611377602183610e24565b91506113828261131b565b604082019050919050565b600060208201905081810360008301526113a68161136a565b9050919050565b60006113b882610f37565b91506113c383610f37565b9250827fffffffffffffffffffffffffffffffffffffffffffffffffffffffffffffffff038211156113f8576113f761116c565b5b828201905092915050565b7f616d6f756e742063616e6e6f7420626520300000000000000000000000000000600082015250565b6000611439601283610e24565b915061144482611403565b602082019050919050565b600060208201905081810360008301526114688161142c565b9050919050565b7f43616e6e6f742067656e6572617465206d6f726520415544207468616e20636f60008201527f6c6c61746572616c20616c6c6f772e0000000000000000000000000000000000602082015250565b60006114cb602f83610e24565b91506114d68261146f565b604082019050919050565b600060208201905081810360008301526114fa816114be565b9050919050565b6000604082019050611516600083018561103a565b6115236020830184610fe3565b939250505056fea2646970667358221220d57ac3dd42d3b4595062588ee36275076d28ef3f6e10b933c0559de1cefe158364736f6c63430008090033",
  "immutableReferences": {},
  "source": "// SPDX-License-Identifier: MIT\npragma solidity >=0.8.6;\n\nimport \"./AUDStablecoin.sol\";\n\ncontract Vault {        \n\n    string public name = \"Vault\";\n    uint256 private ETH_VALUE = 4000;\n    address public owner;\n    \n    AUDStablecoin public audStablecoin;                        \n\n    mapping(address => uint256) public collateralAmount;\n    mapping(address => uint256) public audCoinAmount;\n    \n    event Transfer(\n        address indexed _from,\n        address indexed _to,\n        uint256 _value\n    );\n\n    event Approval(\n        address indexed _owner,\n        address indexed _spender,\n        uint256 _value\n    );\n\n    function transfer(address _to, uint256 _amount) public returns (bool success) {                        \n        require((((collateralAmount[msg.sender] * ETH_VALUE) - audCoinAmount[msg.sender]) / ETH_VALUE) > _amount, 'User cannot withdraw more collateralized value than its have');\n        emit Transfer(msg.sender, _to, _amount);\n        return true;\n    }\n\n    function approve(address _spender, uint256 _amount) public returns (bool success) {        \n        require((((collateralAmount[msg.sender] * ETH_VALUE) - audCoinAmount[msg.sender]) / ETH_VALUE) > _amount, 'User cannot withdraw more collateralized value than its have');\n        emit Approval(msg.sender, _spender, _amount);\n        return true;\n    }\n\n    constructor(AUDStablecoin _audStablecoin) {\n        audStablecoin = _audStablecoin;\n        owner = msg.sender;\n    }\n\n    function deposit() payable public {\n        //require(msg.value == _amount);\n        collateralAmount[msg.sender] = collateralAmount[msg.sender] + msg.value;        \n    }\n\n    function getCollateralAmount() public view returns (uint256) {\n        return collateralAmount[msg.sender];\n    }\n\n    function getBalance() public view returns (uint256) {\n        return address(this).balance;\n    }\n    \n    function generateAUDCoin(uint256 _amount) public {        \n        require(_amount > 0, \"amount cannot be 0\");\n        require(((collateralAmount[msg.sender] * ETH_VALUE) - audCoinAmount[msg.sender]) >= _amount, \"Cannot generate more AUD than collateral allow.\");\n        \n        audStablecoin.mint(msg.sender, _amount);        \n        audCoinAmount[msg.sender] = audCoinAmount[msg.sender] + _amount;\n    }\n\n    function getAUDCAvailable() public view returns (uint256) {        \n        return (collateralAmount[msg.sender] * ETH_VALUE) - audCoinAmount[msg.sender];\n    }\n\n    function getPossibleAUDC(uint _ether_amount) public view returns (uint256) {\n        return _ether_amount * ETH_VALUE;\n    }\n\n    function getAUDAmount() public view returns (uint256) {\n        return audCoinAmount[msg.sender];\n    }\n\n    function getNotUsedCollateral() public view returns (uint256) {        \n        \n        return (((collateralAmount[msg.sender] * ETH_VALUE) - audCoinAmount[msg.sender]) / ETH_VALUE);\n    }    \n\n    function withdrawEthAvailable(uint _amount) public {\n        require(_amount > 0, 'Amount might be greater than zero');\n        require((((collateralAmount[msg.sender] * ETH_VALUE) - audCoinAmount[msg.sender]) / ETH_VALUE) > _amount, 'User cannot withdraw more collateralized value than its have');\n\n        transfer(msg.sender, _amount);\n        collateralAmount[msg.sender] = collateralAmount[msg.sender] - _amount;        \n    }\n}",
  "sourcePath": "/home/snowman/Documents/DEFI_AURUS/my-app/src/contracts/Vault.sol",
  "compiler": {
    "name": "solc",
    "version": "0.8.9+commit.e5eed63a.Emscripten.clang"
  },
  "schemaVersion": "3.4.3",
  "updatedAt": "2021-10-21T23:28:38.379Z",
  "networkType": "ethereum",
  "devdoc": {
    "kind": "dev",
    "methods": {},
    "version": 1
  },
  "userdoc": {
    "kind": "user",
    "methods": {},
    "version": 1
  }
}